:100000000C942A000C943F000C943F000C943F0089
:100010000C943F000C943F000C943F000C943F0064
:100020000C943F000C943F000C943F000C943F0054
:100030000C943F000C943F000C943F000C943F0044
:100040000C943F000C943F000C943F000C943F0034
:100050000C943F0011241FBECFE5D8E0DEBFCDBF1A
:1000600011E0A0E6B0E0E8ECF2E202C005900D92EB
:10007000A43AB107D9F70E94A40D0C9462110C9414
:100080000000EF92FF920F931F937B018C0120E001
:1000900030E040E05FE40E94ED0388238CF0C8016B
:1000A000B70120E030E040E05FE40E94B9010E9427
:1000B000AB049B01AC01205030404040504806C08A
:1000C000C801B7010E94AB049B01AC01B901CA0190
:1000D0001F910F91FF90EF900895A0E0B0E0E3E74B
:1000E000F0E00C94B710DC012B01FA019C919230E6
:1000F00008F439C1EB018881823008F433C19430AF
:1001000069F4843009F02FC111969C91119789816F
:10011000981709F428C1A3E8B0E025C1843009F498
:1001200021C18230A9F4923009F01DC19A01AD01BC
:1001300088E0EA010990AE01E90109929E0181502F
:10014000C1F7E201898111969C918923818308C1BD
:10015000923009F407C112962D903C901397EB0151
:100160008A819B811496AD90BD90CD90DC901797BD
:10017000EC80FD800E811F819101281B390BB90194
:1001800037FF04C066277727621B730B6032710547
:100190000CF061C0121613066CF537014801062EEB
:1001A00004C096948794779467940A94D2F721E0D8
:1001B00030E040E050E004C0220F331F441F551FC1
:1001C0006A95D2F721503040404050402E213F21C7
:1001D00040235123211531054105510521F021E02E
:1001E00030E040E050E079018A01E628F72808294C
:1001F00019293CC0232BD1F1260E371E35014601AB
:10020000062E04C096948794779467940A94D2F744
:1002100021E030E040E050E004C0220F331F441FD3
:10022000551F6A95D2F721503040404050402A2156
:100230003B214C215D21211531054105510521F05E
:1002400021E030E040E050E059016A01A628B728DB
:10025000C828D9280BC0821593052CF01C01AA24AC
:10026000BB24650103C0EE24FF24870111969C91F5
:10027000D20111968C91981709F445C0992339F051
:10028000A80197012A193B094C095D0906C0A6017E
:1002900095012E193F09400B510B57FD08C01182E3
:1002A0003382228224833583468357831DC081E0B5
:1002B00081833382228288279927DC01821B930B5A
:1002C000A40BB50B84839583A683B7830DC0220F3F
:1002D000331F441F551F24833583468357838281F0
:1002E000938101979383828324813581468157814D
:1002F000DA01C9010197A109B1098F5F9F4FAF4F83
:10030000BF4328F30BC0918333822282EA0CFB1C8B
:100310000C1D1D1DE482F5820683178383E0808314
:10032000248135814681578157FF1AC0C901AA2708
:1003300097FDA095BA2F81709070A070B0705695FF
:10034000479537952795822B932BA42BB52B848328
:100350009583A683B7838281938101969383828359
:10036000DF0101C0D201CD01CDB7DEB7E2E10C94CF
:10037000D310A0E2B0E0EFEBF1E00C94C31069837E
:100380007A838B839C832D833E834F835887E9E058
:10039000EE2EF12CEC0EFD1ECE010196B7010E944F
:1003A00023068E010F5E1F4FCE010596B8010E94F5
:1003B00023068A8991E089278A8BC701B801AE019B
:1003C000475E5F4F0E946D000E944E05A096E6E0DA
:1003D0000C94DF10A0E2B0E0E0EFF1E00C94C31069
:1003E00069837A838B839C832D833E834F835887D5
:1003F000F9E0EF2EF12CEC0EFD1ECE010196B701B7
:100400000E9423068E010F5E1F4FCE010596B80194
:100410000E942306C701B801AE01475E5F4F0E94EC
:100420006D000E944E05A096E6E00C94DF10A0E25D
:10043000B0E0EDE1F2E00C94B71069837A838B832E
:100440009C832D833E834F835887CE010196BE0146
:10045000675F7F4F0E942306CE010596BE016F5E47
:100460007F4F0E9423069985923088F089898230D7
:10047000C8F0943019F4823051F404C0843029F467
:10048000923081F483E890E0C6C0923049F420E0D5
:100490009A858A89981321E02A87CE010996BBC0E4
:1004A000823049F420E09A858A89981321E02A8BCA
:1004B000CE014196B0C02D843E844F8458886D880B
:1004C0007E888F88988CEE24FF248701AA24BB2481
:1004D000650140E050E060E070E0E0E0F0E0C10184
:1004E00081709070892BE9F0E60CF71C081D191D2E
:1004F0009A01AB012A0D3B1D4C1D5D1D80E090E073
:10050000A0E0B0E0E614F7040805190520F481E046
:1005100090E0A0E0B0E0BA01A901480F591F6A1F9E
:100520007B1FAA0CBB1CCC1CDD1C97FE08C081E005
:1005300090E0A0E0B0E0A82AB92ACA2ADB2A3196C6
:10054000E032F10549F0660C771C881C991C569422
:10055000479437942794C3CFFA85EA892B893C893D
:100560008B859C85280F391F2E5F3F4F17C0CA010E
:1005700081709070892B61F016950795F794E79438
:1005800080E090E0A0E0B0E8E82AF92A0A2B1B2BD3
:1005900076956795579547952F5F3F4F77FDE7CF46
:1005A0000CC0440F551F661F771F17FD4160EE0CEE
:1005B000FF1C001F111F21503040403090E05907B0
:1005C00090E0690790E4790760F32B8F3C8FDB01A3
:1005D000CA018F779070A070B07080349105A1052A
:1005E000B10561F447FD0AC0E114F10401051105EC
:1005F00029F0405C5F4F6F4F7F4F40781A8EFE1797
:1006000011F081E08A8F4D8F5E8F6F8F78A383E02A
:10061000898FCE0149960E944E05A096E2E10C9486
:10062000D310A8E1B0E0E7E1F3E00C94BF106983D8
:100630007A838B839C832D833E834F835887B9E0D5
:10064000EB2EF12CEC0EFD1ECE010196B7010E949F
:1006500023068E010F5E1F4FCE010596B8010E9442
:1006600023062985223008F47EC03989323010F4FF
:10067000B8017CC08A859A8989278A87243011F03D
:10068000223031F4231709F06EC063E870E06EC0C9
:10069000343039F41D861E861F86188A1C861B86F8
:1006A00004C0323021F484E08987B7015FC02B8514
:1006B0003C858B899C89281B390B3C872B87ED84D3
:1006C000FE840F851889AD88BE88CF88D88CEA143F
:1006D000FB040C051D0540F4EE0CFF1C001F111F50
:1006E000215030403C872B8720E030E040E050E054
:1006F00080E090E0A0E0B0E460E070E0EA14FB0489
:100700000C051D0540F0282B392B4A2B5B2BEA18D2
:10071000FB080C091D09B695A79597958795EE0CD2
:10072000FF1C001F111F6F5F7F4F6F31710531F785
:10073000DA01C9018F779070A070B0708034910594
:10074000A105B10561F427FD0AC0E114F10401051A
:10075000110529F0205C3F4F4F4F5F4F20782D87C8
:100760003E874F87588BBE01675F7F4FCB010E944A
:100770004E056896EAE00C94DB10A8E1B0E0E3ECEB
:10078000F3E00C94C31069837A838B839C832D835D
:100790003E834F83588789E0E82EF12CEC0EFD1E36
:1007A000CE010196B7010E9423068E010F5E1F4FF6
:1007B000CE010596B8010E9423068985823040F05B
:1007C0008989823028F0C701B8010E949B0601C0C8
:1007D0008FEF6896E6E00C94DF10A8E1B0E0E3EF5D
:1007E000F3E00C94C31069837A838B839C832D83FD
:1007F0003E834F83588789E0E82EF12CEC0EFD1ED6
:10080000CE010196B7010E9423068E010F5E1F4F95
:10081000CE010596B8010E9423068985823040F0FA
:100820008989823028F0C701B8010E949B0601C067
:100830008FEF6896E6E00C94DF10A8E1B0E0E3E209
:10084000F4E00C94C31069837A838B839C832D839B
:100850003E834F83588789E0E82EF12CEC0EFD1E75
:10086000CE010196B7010E9423068E010F5E1F4F35
:10087000CE010596B8010E9423068985823040F09A
:100880008989823028F0C701B8010E949B0601C007
:1008900081E06896E6E00C94DF10A8E0B0E0E3E5C4
:1008A000F4E00C94C0109B01AC0183E08983DA0171
:1008B000C9018827B7FD83959927AA27BB27B82E9A
:1008C000211531054105510519F482E089833AC0AB
:1008D0008823A9F0203080E0380780E0480780E8CE
:1008E000580729F460E070E080E09FEC30C0EE240F
:1008F000FF248701E21AF30A040B150B02C07901E9
:100900008A018EE1C82ED12CDC82CB82ED82FE8260
:100910000F831887C801B7010E94FF0401971816BA
:10092000190684F4082E04C0EE0CFF1C001F111FD2
:100930000A94D2F7ED82FE820F831887C81AD90A6B
:10094000DC82CB82BA82CE0101960E944E052896A7
:10095000E9E00C94DC10ACE0B0E0E1EBF4E00C94E6
:10096000C71069837A838B839C83CE010196BE0175
:100970006B5F7F4F0E9423068D81823061F1823050
:1009800050F1843021F48E81882351F12EC02F81C3
:10099000388537FD20C06E812F3131051CF066236C
:1009A000F9F023C08EE190E0821B930B29853A85F4
:1009B0004B855C8504C056954795379527958A9554
:1009C000D2F76623B1F050954095309521953F4F71
:1009D0004F4F5F4F0EC020E030E040E050E009C0D4
:1009E0002FEF3FEF4FEF5FE704C020E030E040E043
:1009F00050E8B901CA012C96E2E00C94E310EF92A2
:100A0000FF920F931F937B018C0180E0E81680E03A
:100A1000F80681E0080780E0180788F48FEFE816F1
:100A2000F1040105110531F028F088E090E0A0E024
:100A3000B0E017C080E090E0A0E0B0E012C080E03D
:100A4000E81680E0F80680E0080781E0180728F043
:100A500088E190E0A0E0B0E004C080E190E0A0E098
:100A6000B0E020E230E040E050E0281B390B4A0BB8
:100A70005B0B04C016950795F794E7948A95D2F717
:100A8000F701E557FF4F8081281B310941095109C2
:100A9000C9011F910F91FF90EF900895DF92EF929F
:100AA000FF920F931F93FC01E480F580068117816C
:100AB000D1808081823048F480E090E0A0E1B0E015
:100AC000E82AF92A0A2B1B2BA5C0843009F49FC001
:100AD000823021F4EE24FF24870105C0E114F104E3
:100AE0000105110519F4E0E0F0E096C06281738120
:100AF0009FEF623879070CF05BC022E83FEF261BBE
:100B0000370B2A3131052CF020E030E040E050E096
:100B10002AC0B801A701022E04C0769567955795A3
:100B200047950A94D2F781E090E0A0E0B0E004C0DD
:100B3000880F991FAA1FBB1F2A95D2F70197A109F9
:100B4000B1098E219F21A023B1230097A105B105F2
:100B500021F081E090E0A0E0B0E09A01AB01282B09
:100B6000392B4A2B5B2BDA01C9018F779070A0706B
:100B7000B07080349105A105B10539F427FF09C093
:100B8000205C3F4F4F4F5F4F04C0215C3F4F4F4FA2
:100B90005F4FE0E0F0E02030A0E03A07A0E04A0735
:100BA000A0E45A0710F0E1E0F0E079018A0127C0E3
:100BB0006038710564F5FB01E158FF4FD801C701AA
:100BC0008F779070A070B07080349105A105B10549
:100BD00039F4E7FE0DC080E490E0A0E0B0E004C08E
:100BE0008FE390E0A0E0B0E0E80EF91E0A1F1B1FA3
:100BF00017FF05C016950795F794E794319687E09F
:100C000016950795F794E7948A95D1F705C0EE24D9
:100C1000FF248701EFEFF0E06E2F67956627679559
:100C2000902F9F77D794DD24D7948E2F8695492FC8
:100C3000462B582F5D29B701CA011F910F91FF90D4
:100C4000EF90DF900895FC01DB014081518122810A
:100C5000622F6F7770E0221F2227221F9381892F36
:100C6000880F822B282F30E0991F9927991F119602
:100C70009C93119721153105A9F541155105610581
:100C8000710511F482E037C082E89FEF13969C93C0
:100C90008E9312979A01AB0167E0220F331F441F16
:100CA000551F6A95D1F783E08C930DC0220F331F37
:100CB000441F551F12968D919C911397019713967F
:100CC0009C938E931297203080E0380780E048078D
:100CD00080E4580758F314962D933D934D935C93FD
:100CE000179708952F3F310579F441155105610596
:100CF000710519F484E08C93089564FF03C081E0CA
:100D00008C9312C01C9210C02F57304013963C9306
:100D10002E93129783E08C9387E0440F551F661F34
:100D2000771F8A95D1F7706414964D935D936D93F8
:100D30007C93179708951F93DC01FB019C919230DF
:100D400008F447C08081823008F443C0943051F4E5
:100D500011961C91843099F58181682F70E0611B98
:100D600071093FC0843021F0923031F48230B9F102
:100D70008181882389F12DC011961C9111978230B1
:100D8000F1F081811817D9F412962D913C911397A7
:100D9000828193818217930794F028173907BCF05A
:100DA00014968D919D910D90BC91A02D248135813B
:100DB00046815781281739074A075B0718F4112322
:100DC00041F00AC082179307A407B50740F4112326
:100DD00019F061E070E005C06FEF7FEF02C060E0E6
:100DE00070E0CB011F910895DF93CF93CDB7DEB7AD
:100DF00027970FB6F894DEBF0FBECDBF89836A83F5
:100E00004B838B81882309F074C08981282F30E0BF
:100E10003F832E838E819F818130910559F12E81F0
:100E20003F81223031052CF48E819F81009769F03B
:100E3000D2C02E813F812230310589F18E819F8180
:100E40008330910509F440C0C6C0AAE3B0E0EAE3EC
:100E5000F0E08081482F8A81282F30E081E090E007
:100E6000022E02C0880F991F0A94E2F7809584230E
:100E70008C93B1C0A7E3B0E0E7E3F0E08081482FB6
:100E80008A81282F30E081E090E0022E02C0880F96
:100E9000991F0A94E2F7809584238C939CC0A4E365
:100EA000B0E0E4E3F0E08081482F8A81282F30E031
:100EB00081E090E0022E02C0880F991F0A94E2F7A9
:100EC000809584238C9387C0A1E3B0E0E1E3F0E058
:100ED0008081482F8A81282F30E081E090E0022E27
:100EE00002C0880F991F0A94E2F7809584238C939F
:100EF00072C08B81813009F06EC08981282F30E06B
:100F00003D832C838C819D818130910549F12C8119
:100F10003D81223031052CF48C819D81009761F058
:100F20005AC02C813D812230310571F18C819D8127
:100F300083309105E9F14FC0AAE3B0E0EAE3F0E0C5
:100F40008081482F8A81282F30E081E090E0022EB6
:100F500002C0880F991F0A94E2F7842B8C933BC040
:100F6000A7E3B0E0E7E3F0E08081482F8A81282FF3
:100F700030E081E090E0022E02C0880F991F0A94B1
:100F8000E2F7842B8C9327C0A4E3B0E0E4E3F0E025
:100F90008081482F8A81282F30E081E090E0022E66
:100FA00002C0880F991F0A94E2F7842B8C9313C018
:100FB000A1E3B0E0E1E3F0E08081482F8A81282FAF
:100FC00030E081E090E0022E02C0880F991F0A9461
:100FD000E2F7842B8C9327960FB6F894DEBF0FBEF2
:100FE000CDBFCF91DF910895DF93CF93CDB7DEB71B
:100FF00027970FB6F894DEBF0FBECDBF89836A83F3
:101000004B838B81882309F074C08981282F30E0BD
:101010003F832E838E819F818130910559F12E81EE
:101020003F81223031052CF48E819F81009769F039
:10103000D2C02E813F812230310589F18E819F817E
:101040008330910509F440C0C6C0ABE3B0E0EBE3E8
:10105000F0E08081482F8A81282F30E081E090E005
:10106000022E02C0880F991F0A94E2F7809584230C
:101070008C93B1C0A8E3B0E0E8E3F0E08081482FB2
:101080008A81282F30E081E090E0022E02C0880F94
:10109000991F0A94E2F7809584238C939CC0A5E362
:1010A000B0E0E5E3F0E08081482F8A81282F30E02E
:1010B00081E090E0022E02C0880F991F0A94E2F7A7
:1010C000809584238C9387C0A2E3B0E0E2E3F0E054
:1010D0008081482F8A81282F30E081E090E0022E25
:1010E00002C0880F991F0A94E2F7809584238C939D
:1010F00072C08B81813009F06EC08981282F30E069
:101100003D832C838C819D818130910549F12C8117
:101110003D81223031052CF48C819D81009761F056
:101120005AC02C813D812230310571F18C819D8125
:1011300083309105E9F14FC0ABE3B0E0EBE3F0E0C1
:101140008081482F8A81282F30E081E090E0022EB4
:1011500002C0880F991F0A94E2F7842B8C933BC03E
:10116000A8E3B0E0E8E3F0E08081482F8A81282FEF
:1011700030E081E090E0022E02C0880F991F0A94AF
:10118000E2F7842B8C9327C0A5E3B0E0E5E3F0E021
:101190008081482F8A81282F30E081E090E0022E64
:1011A00002C0880F991F0A94E2F7842B8C9313C016
:1011B000A2E3B0E0E2E3F0E08081482F8A81282FAB
:1011C00030E081E090E0022E02C0880F991F0A945F
:1011D000E2F7842B8C9327960FB6F894DEBF0FBEF0
:1011E000CDBFCF91DF910895DF93CF9300D000D092
:1011F00000D0CDB7DEB789836A835C834B83898156
:10120000282F30E03E832D838D819E818130910592
:1012100049F12D813E81223031052CF48D819E8152
:10122000009761F05AC02D813E812230310571F165
:101230008D819E8183309105E9F14FC0E9E3F0E0B3
:101240008081482F8A81282F30E081E090E0022EB3
:1012500002C0880F991F0A94E2F78423EB81FC8176
:1012600080833BC0E6E3F0E08081482F8A81282F0D
:1012700030E081E090E0022E02C0880F991F0A94AE
:10128000E2F78423EB81FC81808327C0E3E3F0E075
:101290008081482F8A81282F30E081E090E0022E63
:1012A00002C0880F991F0A94E2F78423EB81FC8126
:1012B000808313C0E0E3F0E08081482F8A81282FEB
:1012C00030E081E090E0022E02C0880F991F0A945E
:1012D000E2F78423EB81FC81808326960FB6F89495
:1012E000DEBF0FBECDBFCF91DF910895DF93CF93C7
:1012F00000D000D000D0CDB7DEB789836A838A8161
:10130000882379F58981282F30E03E832D838D81D4
:101310009E8181309105C9F02D813E8122303105B9
:101320002CF48D819E81009761F050C02D813E810B
:101330002230310571F08D819E818330910569F0F5
:1013400045C0EAE3F0E0108241C0E7E3F0E010823C
:101350003DC0E4E3F0E0108239C0E1E3F0E0108248
:1013600035C08A81813091F58981282F30E03C8316
:101370002B838B819C8181309105D1F02B813C8125
:10138000223031052CF48B819C81009761F01EC0C6
:101390002B813C812230310581F08B819C8183300F
:1013A000910581F013C0EAE3F0E08FEF80830EC077
:1013B000E7E3F0E08FEF808309C0E4E3F0E08FEF34
:1013C000808304C0E1E3F0E08FEF808326960FB6C0
:1013D000F894DEBF0FBECDBFCF91DF910895DF93AC
:1013E000CF9300D000D0CDB7DEB789836A838981DF
:1013F000282F30E03C832B838B819C8181309105A9
:10140000D1F02B813C81223031052CF48B819C81E1
:10141000009761F01EC02B813C812230310581F0A4
:101420008B819C818330910581F013C0EBE3F0E068
:101430008A8180830EC0E8E3F0E08A81808309C05E
:10144000E5E3F0E08A81808304C0E2E3F0E08A8192
:1014500080830F900F900F900F90CF91DF910895A0
:10146000DF93CF9300D000D00F92CDB7DEB7898342
:101470007B836A838981282F30E03D832C838C8194
:101480009D8181309105E1F02C813D812230310533
:101490002CF48C819D81009761F026C02C813D81C8
:1014A00022303105A1F08C819D8183309105B1F00E
:1014B0001BC0E9E3F0E08081EA81FB81808314C0F6
:1014C000E6E3F0E08081EA81FB8180830DC0E3E305
:1014D000F0E08081EA81FB81808306C0E0E3F0E0F8
:1014E0008081EA81FB8180830F900F900F900F9095
:1014F0000F90CF91DF910895DF93CF9300D000D06C
:101500000F92CDB7DEB78FEF8B831A825EC08A81D0
:10151000882F90E0FC01E157FE4F908183E0692F16
:1015200040E00E94F40719823DC08981882F90E035
:10153000FC01E557FE4F90819E012C5F3F4F81E0FB
:10154000692FA9010E94F4088C81882341F58981C3
:10155000482F50E08A81282F30E0CA01880F991F58
:10156000880F991F820F931FFC01ED56FE4F80815B
:101570008B830FC08981882F90E0FC01E557FE4FD7
:1015800090819E012C5F3F4F81E0692FA9010E944D
:10159000F4088C81882371F38B818D831CC0898131
:1015A0008F5F89838981843008F4BFCF8A81882F37
:1015B00090E0FC01E157FE4F908183E0692F41E00C
:1015C0000E94F4078A818F5F8A838A81843008F4BD
:1015D0009ECF8B818D838D810F900F900F900F90F8
:1015E0000F90CF91DF910895DF93CF93CDB7DEB702
:1015F00083E062E041E00E94F40683E063E041E0C2
:101600000E94F40683E064E041E00E94F40683E077
:1016100065E041E00E94F40681E064E040E00E9461
:10162000F40681E065E040E00E94F40681E066E0B7
:1016300040E00E94F40681E067E040E00E94F4068A
:1016400083E06CE30E94EF0981E060EF0E94EF0904
:10165000CF91DF910895DF93CF93CDB7DEB72F976A
:101660000FB6F894DEBF0FBECDBF8F8781E060E07C
:1016700040E00E94F40781E061E040E00E94F4074E
:1016800080E06F850E94EF0981E062E041E00E9406
:10169000F40780E090E0A0E0B0E48B879C87AD8702
:1016A000BE876B857C858D859E8520E030E04AE78E
:1016B00055E40E941702DC01CB018F839887A9872C
:1016C000BA876F81788589859A8520E030E040E887
:1016D0005FE30E941D0488232CF481E090E09E8348
:1016E0008D833FC06F81788589859A8520E03FEFA3
:1016F0004FE757E40E94BD0318164CF56B857C85B7
:101700008D859E8520E030E040E251E40E94170282
:10171000DC01CB01BC01CD010E944100DC01CB0109
:101720009E838D830FC080E991E09C838B838B81A6
:101730009C810197F1F79C838B838D819E8101971A
:101740009E838D838D819E81009769F714C06F8180
:10175000788589859A850E944100DC01CB019E83B2
:101760008D838D819E819A83898389819A81019756
:10177000F1F79A83898381E062E040E00E94F407F8
:101780002F960FB6F894DEBF0FBECDBFCF91DF917D
:101790000895DF93CF93CDB7DEB72F970FB6F894A8
:1017A000DEBF0FBECDBF8F8781E060E041E00E94C9
:1017B000F40781E061E040E00E94F40780E06F857B
:1017C0000E94EF0981E062E041E00E94F40780E0BE
:1017D00090E0A0E0B0E48B879C87AD87BE876B85E7
:1017E0007C858D859E8520E030E04AE755E40E94A7
:1017F0001702DC01CB018F839887A987BA876F8195
:10180000788589859A8520E030E040E85FE30E9492
:101810001D0488232CF481E090E09E838D833FC0DB
:101820006F81788589859A8520E03FEF4FE757E4FF
:101830000E94BD0318164CF56B857C858D859E85B1
:1018400020E030E040E251E40E941702DC01CB01CD
:10185000BC01CD010E944100DC01CB019E838D8340
:101860000FC080E991E09C838B838B819C810197E1
:10187000F1F79C838B838D819E8101979E838D835D
:101880008D819E81009769F714C06F817885898565
:101890009A850E944100DC01CB019E838D838D815E
:1018A0009E819A83898389819A810197F1F79A832E
:1018B000898381E062E040E00E94F4072F960FB632
:1018C000F894DEBF0FBECDBFCF91DF910895DF93B7
:1018D000CF93CDB7DEB72E970FB6F894DEBF0FBE0D
:1018E000CDBF80E061E00E94760981E060E041E0E8
:1018F0000E94F40681E061E041E00E94F40681E08C
:1019000062E041E00E94F40680E090E0A0E2B2E4F0
:101910008B879C87AD87BE876B857C858D859E85F3
:1019200020E030E04AE755E40E941702DC01CB01D9
:101930008F839887A987BA876F81788589859A85EB
:1019400020E030E040E85FE30E941D0488232CF48F
:1019500081E090E09E838D833FC06F81788589858B
:101960009A8520E03FEF4FE757E40E94BD03181629
:101970004CF56B857C858D859E8520E030E040E2CE
:1019800051E40E941702DC01CB01BC01CD010E9491
:101990004100DC01CB019E838D830FC080E991E083
:1019A0009C838B838B819C810197F1F79C838B8334
:1019B0008D819E8101979E838D838D819E8100976D
:1019C00069F714C06F81788589859A850E944100E6
:1019D000DC01CB019E838D838D819E819A838983D7
:1019E00089819A810197F1F79A83898388E30E941C
:1019F0002B0B8CE00E942B0B81E00E942B0B2E9670
:101A00000FB6F894DEBF0FBECDBFCF91DF91089522
:101A1000DF93CF9300D00F92CDB7DEB79B838A833D
:101A200019820EC08981282F30E08A819B81FC01B8
:101A3000E20FF31F80810E94C90B89818F5F898328
:101A40008981282F30E08A819B81FC01E20FF31FFE
:101A50008081882339F70F900F900F90CF91DF91FD
:101A60000895DF93CF93CDB7DEB764970FB6F894A0
:101A7000DEBF0FBECDBF698B7A8B8B8B9C8B898928
:101A80009A899E012F5F3F4FB9014AE050E00E94C2
:101A90001511CE0101960E94080D64960FB6F894B8
:101AA000DEBF0FBECDBFCF91DF910895DF93CF93FF
:101AB00000D000D00F92CDB7DEB78A836B83198236
:101AC0008A81282F30E03D832C838C819D81009773
:101AD00031F02C813D812130310521F006C08B8110
:101AE000898303C08B81805C8983898180680E949F
:101AF0002B0B0F900F900F900F900F90CF91DF91C5
:101B00000895DF93CF93CDB7DEB781E00E942B0B12
:101B1000CF91DF910895DF93CF9300D000D0CDB760
:101B2000DEB789836A835C834B8389816A810E94E3
:101B3000560D8B819C810E94080D0F900F900F9085
:101B40000F90CF91DF910895EF92FF920F931F9323
:101B5000DF93CF93CDB7DEB7C654D0400FB6F8941D
:101B6000DEBF0FBECDBF0E94F40A0E94670C80E664
:101B700090E00E94080D81E060E00E94560D81E730
:101B800090E00E94080D80E090E0AAEFB4E48B871B
:101B90009C87AD87BE876B857C858D859E8520E083
:101BA00030E04AE755E40E941702DC01CB018F8345
:101BB0009887A987BA876F81788589859A8520E07B
:101BC00030E040E85FE30E941D0488232CF481E0AC
:101BD00090E09E838D833FC06F81788589859A854B
:101BE00020E03FEF4FE757E40E94BD0318164CF585
:101BF0006B857C858D859E8520E030E040E251E458
:101C00000E941702DC01CB01BC01CD010E94410002
:101C1000DC01CB019E838D830FC080E991E09C8322
:101C20008B838B819C810197F1F79C838B838D81C2
:101C30009E8101979E838D838D819E81009769F798
:101C400014C06F81788589859A850E944100DC01E6
:101C5000CB019E838D838D819E819A838983898127
:101C60009A810197F1F79A8389830E94810D1DA2C1
:101C70001EA21FA218A68CE0FE01B996DF01282F34
:101C80001D922A95E9F71DAA1EAA1FAA18AE19AE21
:101C90001AAE1BAE1CAEFE01FD961082118212829E
:101CA0001382FE01EF5BFF4F1082118212821382BA
:101CB00019A21AA21BA21CA21D8E1E8E1F8E18A274
:101CC000198A1C8A8C898031E8F70E947C0A8F87E8
:101CD00003C00E947C0A8F878F858F3FD1F38F8549
:101CE000833469F40E94810DCE01859622E830E0AC
:101CF000B90141E050E00E940C111C8AE3CF8C89AD
:101D0000282F30E0CE018596FC01E20FF31F8F856E
:101D100080838C89282F30E0CE018596FC01E20F6C
:101D2000F31F80818D3381F48DE30E94C90B8C8970
:101D3000282F30E0CE018596FC01E20FF31F1082C0
:101D40001C8A1B8A1A8A85C08C89282F30E0CE0114
:101D50008596FC01E20FF31F80810E94C90B8C89DC
:101D60008F5F8C8BAFCF8C89282F30E0CE0185968A
:101D7000FC01E20FF31F80818A3209F18C89282F40
:101D800030E0CE018596FC01E20FF31F80818F3297
:101D9000B1F08C89282F30E0CE018596FC01E20F4E
:101DA000F31F80818B3259F08C89282F30E0CE01CF
:101DB0008596FC01E20FF31F80818D3291F58C89AD
:101DC000282F30E0CE018596FC01E20FF31F8081C1
:101DD000888B8C898F5F8C8B18C08A89482F50E044
:101DE0008C89282F30E0CE018596FC01E20FF31F8D
:101DF0002081CE01CD96FC01E40FF51F20838A8956
:101E00008F5F8A8B8C898F5F8C8B8C89282F30E039
:101E1000CE018596FC01E20FF31F80818823E9F64D
:101E200024C08B89482F50E08C89282F30E0CE01C8
:101E30008596FC01E20FF31F2081CE01C596FC01BF
:101E4000E40FF51F20838B898F5F8B8B8C898F5FCD
:101E50008C8B8C89282F30E0CE018596FC01E20F17
:101E6000F31F8081882309F07ECFCE01C5960E94A2
:101E7000EE10AA2797FDA095BA2F89A39AA3ABA32A
:101E8000BCA3CE01CD960E94EE10AA2797FDA09587
:101E9000BA2F8D8F9E8FAF8FB8A38889A82FB0E0FF
:101EA0002796BFAFAEAF279727962EAD3FAD2797AA
:101EB0002B323105F1F027968EAD9FAD27978C32EE
:101EC000910544F42796AEADBFAD2797AA32B10570
:101ED00091F1B5C027962EAD3FAD27972D32310534
:101EE000C9F027968EAD9FAD27978F329105B1F13E
:101EF000A6C089A19AA1ABA1BCA12D8D3E8D4F8D0D
:101F000058A1820F931FA41FB51F898F9A8FAB8F83
:101F1000BC8F95C089A19AA1ABA1BCA12D8D3E8D8E
:101F20004F8D58A1821B930BA40BB50B898F9A8FF1
:101F3000AB8FBC8F84C089A19AA1ABA1BCA12D8D10
:101F40003E8D4F8D58A1BC01CD010E945B10DC017C
:101F5000CB01898F9A8FAB8FBC8F71C089A19AA159
:101F6000ABA1BCA12D8D3E8D4F8D58A1BC01CD01E3
:101F70000E947A10DC01CB010097A105B10599F40C
:101F800089A19AA1ABA1BCA12D8D3E8D4F8D58A1E9
:101F9000BC01CD010E947A10DA01C901898F9A8FA4
:101FA000AB8FBC8F4CC069A17AA18BA19CA10E9470
:101FB0004D047B018C016D8D7E8D8F8D98A10E94CB
:101FC0004D049B01AC01C801B7010E941103DC0163
:101FD000CB018D8B9E8BAF8BB88F89A19AA1ABA1C2
:101FE000BCA12D8D3E8D4F8D58A1BC01CD010E940D
:101FF0007A10DA01C901898F9A8FAB8FBC8F81E08B
:10200000898B698D7A8D8B8D9C8D0E944D049B01EF
:10201000AC016D897E898F89988D0E94B901DC01A0
:10202000CB01BC01CD0120E030E04AE754E40E943E
:102030001702DC01CB018D8B9E8BAF8BB88F89890A
:10204000882321F1898D9A8DAB8DBC8D0097A105D8
:10205000B10521F480E30E94C90B08C0898D9A8DD7
:10206000AB8DBC8DBC01CD010E94310D8EE20E9472
:10207000C90B6D897E898F89988D0E94AB04DC0124
:10208000CB01BC01CD010E94310D08C0898D9A8D14
:10209000AB8DBC8DBC01CD010E94310D0E947C0A2C
:1020A0008F8703C00E947C0A8F878F858334D1F786
:1020B0000E94810DDCCD629FD001739FF001829F51
:1020C000E00DF11D649FE00DF11D929FF00D839FC7
:1020D000F00D749FF00D659FF00D9927729FB00D64
:1020E000E11DF91F639FB00DE11DF91FBD01CF0177
:1020F0001124089597FB092E05260ED057FD04D014
:1021000014D00AD0001C38F4509540953095219594
:102110003F4F4F4F5F4F0895F6F79095809570951C
:1021200061957F4F8F4F9F4F0895A1E21A2EAA1BF2
:10213000BB1BFD010DC0AA1FBB1FEE1FFF1FA21777
:10214000B307E407F50720F0A21BB30BE40BF50B74
:10215000661F771F881F991F1A9469F760957095FD
:10216000809590959B01AC01BD01CF0108952F9200
:102170003F924F925F926F927F928F929F92AF9217
:10218000BF92CF92DF92EF92FF920F931F93CF9364
:10219000DF93CDB7DEB7CA1BDB0B0FB6F894DEBFFB
:1021A0000FBECDBF09942A88398848885F846E8421
:1021B0007D848C849B84AA84B984C884DF80EE806B
:1021C000FD800C811B81AA81B981CE0FD11D0FB674
:1021D000F894DEBF0FBECDBFED010895FC01882746
:1021E0009927E89421912032E9F3293010F02E301C
:1021F000C8F32B3241F02D3239F4689404C00E94A8
:102200003611820F911D219120532A30C0F31EF404
:10221000909581959F4F0895FB01DC0102C00190CC
:102220000D9241505040D8F70895FB019F01E8946A
:102230004230C4F04532B4F44A3029F497FB1EF41E
:10224000909581959F4F642F77270E944E11805D56
:102250008A330CF0895D8193CB010097A1F716F4C6
:102260005DE251931082C9010C943E117AE0979F70
:10227000902D879F802D910D11240895DC01FC0184
:10228000672F71917723E1F7329704C07C916D93AA
:1022900070836291AE17BF07C8F30895AA1BBB1BDA
:1022A00051E107C0AA1FBB1FA617B70710F0A61B56
:1022B000B70B881F991F5A95A9F780959095BC0177
:0822C000CD010895F894FFCF51
:1022C8002A2A2A41484D45442020414C492A2A2A95
:1022D800004D696E692043616C632E2050726F6AED
:1022E8002E000000000000000000000001020203B0
:1022F8000303030404040404040404050505050594
:102308000505050505050505050505060606060670
:102318000606060606060606060606060606060655
:102328000606060606060606060606070707070740
:102338000707070707070707070707070707070725
:102348000707070707070707070707070707070715
:102358000707070707070707070707070707070705
:1023680007070707070707070707070808080808F0
:1023780008080808080808080808080808080808D5
:1023880008080808080808080808080808080808C5
:1023980008080808080808080808080808080808B5
:1023A80008080808080808080808080808080808A5
:1023B8000808080808080808080808080808080895
:1023C8000808080808080808080808080808080885
:1023D8000808080808080808080808080808080875
:1023E8000808080808080808080808040506070275
:1023F8000304053738392F3435362A3132332D4323
:04240800303D2B0038
:00000001FF
